{
  "contractName": "Dice",
  "abi": [
    {
      "constant": true,
      "inputs": [
        {
          "name": "",
          "type": "uint256"
        }
      ],
      "name": "outcome",
      "outputs": [
        {
          "name": "playerAddress",
          "type": "address"
        },
        {
          "name": "selected_num",
          "type": "uint256"
        },
        {
          "name": "rolled_num",
          "type": "uint256"
        },
        {
          "name": "result",
          "type": "bool"
        },
        {
          "name": "ptoken",
          "type": "uint256"
        },
        {
          "name": "timestamp",
          "type": "uint256"
        }
      ],
      "payable": false,
      "stateMutability": "view",
      "type": "function",
      "signature": "0x5a11492a"
    },
    {
      "constant": true,
      "inputs": [
        {
          "name": "",
          "type": "uint256"
        }
      ],
      "name": "details",
      "outputs": [
        {
          "name": "pAddress",
          "type": "address"
        },
        {
          "name": "pName",
          "type": "string"
        }
      ],
      "payable": false,
      "stateMutability": "view",
      "type": "function",
      "signature": "0xa005ec7a"
    },
    {
      "constant": true,
      "inputs": [],
      "name": "tokenSale",
      "outputs": [
        {
          "name": "",
          "type": "address"
        }
      ],
      "payable": false,
      "stateMutability": "view",
      "type": "function",
      "signature": "0xb9420310"
    },
    {
      "constant": true,
      "inputs": [],
      "name": "playerid",
      "outputs": [
        {
          "name": "",
          "type": "uint256"
        }
      ],
      "payable": false,
      "stateMutability": "view",
      "type": "function",
      "signature": "0xdce41b7e"
    },
    {
      "inputs": [
        {
          "name": "_tokenSale",
          "type": "address"
        }
      ],
      "payable": false,
      "stateMutability": "nonpayable",
      "type": "constructor",
      "signature": "constructor"
    },
    {
      "constant": false,
      "inputs": [
        {
          "name": "_pName",
          "type": "string"
        }
      ],
      "name": "setplayerDetails",
      "outputs": [],
      "payable": false,
      "stateMutability": "nonpayable",
      "type": "function",
      "signature": "0xd5cc126b"
    },
    {
      "constant": false,
      "inputs": [
        {
          "name": "_betplaced",
          "type": "uint256"
        },
        {
          "name": "_rollresult",
          "type": "uint256"
        },
        {
          "name": "_result",
          "type": "bool"
        },
        {
          "name": "_ptoken",
          "type": "uint256"
        }
      ],
      "name": "addGameEvent",
      "outputs": [],
      "payable": false,
      "stateMutability": "nonpayable",
      "type": "function",
      "signature": "0x680e4c61"
    },
    {
      "constant": false,
      "inputs": [],
      "name": "tokenfetch",
      "outputs": [],
      "payable": false,
      "stateMutability": "nonpayable",
      "type": "function",
      "signature": "0xee36f77b"
    }
  ],
  "bytecode": "0x608060405260006004556001600555600060065534801561001f57600080fd5b5060405160208061093e8339810180604052602081101561003f57600080fd5b8101908080519060200190929190505050806000806101000a81548173ffffffffffffffffffffffffffffffffffffffff021916908373ffffffffffffffffffffffffffffffffffffffff1602179055505061089e806100a06000396000f3fe608060405260043610610083576000357c0100000000000000000000000000000000000000000000000000000000900463ffffffff1680635a11492a14610088578063680e4c611461012a578063a005ec7a14610185578063b94203101461026c578063d5cc126b146102c3578063dce41b7e1461038b578063ee36f77b146103b6575b600080fd5b34801561009457600080fd5b506100c1600480360360208110156100ab57600080fd5b81019080803590602001909291905050506103cd565b604051808773ffffffffffffffffffffffffffffffffffffffff1673ffffffffffffffffffffffffffffffffffffffff16815260200186815260200185815260200184151515158152602001838152602001828152602001965050505050505060405180910390f35b34801561013657600080fd5b506101836004803603608081101561014d57600080fd5b81019080803590602001909291908035906020019092919080351515906020019092919080359060200190929190505050610436565b005b34801561019157600080fd5b506101be600480360360208110156101a857600080fd5b810190808035906020019092919050505061054d565b604051808373ffffffffffffffffffffffffffffffffffffffff1673ffffffffffffffffffffffffffffffffffffffff16815260200180602001828103825283818151815260200191508051906020019080838360005b83811015610230578082015181840152602081019050610215565b50505050905090810190601f16801561025d5780820380516001836020036101000a031916815260200191505b50935050505060405180910390f35b34801561027857600080fd5b50610281610629565b604051808273ffffffffffffffffffffffffffffffffffffffff1673ffffffffffffffffffffffffffffffffffffffff16815260200191505060405180910390f35b3480156102cf57600080fd5b50610389600480360360208110156102e657600080fd5b810190808035906020019064010000000081111561030357600080fd5b82018360208201111561031557600080fd5b8035906020019184600183028401116401000000008311171561033757600080fd5b91908080601f016020809104026020016040519081016040528093929190818152602001838380828437600081840152601f19601f82011690508083019250505050505050919291929050505061064e565b005b34801561039757600080fd5b506103a061071c565b6040518082815260200191505060405180910390f35b3480156103c257600080fd5b506103cb610722565b005b60026020528060005260406000206000915090508060000160009054906101000a900473ffffffffffffffffffffffffffffffffffffffff16908060010154908060020154908060030160009054906101000a900460ff16908060040154908060050154905086565b60016006541015151561044857600080fd5b60c0604051908101604052803373ffffffffffffffffffffffffffffffffffffffff16815260200185815260200184815260200183151581526020018281526020014281525060026000600554815260200190815260200160002060008201518160000160006101000a81548173ffffffffffffffffffffffffffffffffffffffff021916908373ffffffffffffffffffffffffffffffffffffffff160217905550602082015181600101556040820151816002015560608201518160030160006101000a81548160ff0219169083151502179055506080820151816004015560a0820151816005015590505060056000815480929190600101919050555050505050565b60036020528060005260406000206000915090508060000160009054906101000a900473ffffffffffffffffffffffffffffffffffffffff1690806001018054600181600116156101000203166002900480601f01602080910402602001604051908101604052809291908181526020018280546001816001161561010002031660029004801561061f5780601f106105f45761010080835404028352916020019161061f565b820191906000526020600020905b81548152906001019060200180831161060257829003601f168201915b5050505050905082565b6000809054906101000a900473ffffffffffffffffffffffffffffffffffffffff1681565b60408051908101604052803373ffffffffffffffffffffffffffffffffffffffff1681526020018281525060036000600454815260200190815260200160002060008201518160000160006101000a81548173ffffffffffffffffffffffffffffffffffffffff021916908373ffffffffffffffffffffffffffffffffffffffff16021790555060208201518160010190805190602001906106f19291906107cd565b5090505060046000815480929190600101919050555060066000815480929190600101919050555050565b60045481565b6000809054906101000a900473ffffffffffffffffffffffffffffffffffffffff1673ffffffffffffffffffffffffffffffffffffffff16633610724e60646040518263ffffffff167c010000000000000000000000000000000000000000000000000000000002815260040180828152602001915050600060405180830381600087803b1580156107b357600080fd5b505af11580156107c7573d6000803e3d6000fd5b50505050565b828054600181600116156101000203166002900490600052602060002090601f016020900481019282601f1061080e57805160ff191683800117855561083c565b8280016001018555821561083c579182015b8281111561083b578251825591602001919060010190610820565b5b509050610849919061084d565b5090565b61086f91905b8082111561086b576000816000905550600101610853565b5090565b9056fea165627a7a72305820d1ed1539dc20cd4624c19a91f338e0be28aa43e069b5864b3b3790c0f0fbcebe0029",
  "source": "pragma solidity^0.5.0;\nimport \"./TokenSale.sol\";\ncontract Dice{\n\n    TokenSale public tokenSale;\n    address tokensaleaddress;\n\n    struct player_details{\n\t    address pAddress;\n\t    string pName;\n\t     }\n\n    struct gameRecords{\n        address playerAddress;\n        uint selected_num;\n        uint rolled_num;\n        bool result;\n        uint ptoken;\n        uint timestamp;\n    }\n\n    constructor (TokenSale _tokenSale) public {\n      tokenSale = _tokenSale;\n    }\n\n\n    mapping(uint =>gameRecords) public outcome;\n    mapping(uint => player_details) public details;\n\n    uint public playerid=0;\n    uint played=1;\n  \tuint playercount=0;\n\n\t  function setplayerDetails(string memory _pName) public{\n\t    details[playerid] = player_details(msg.sender,_pName);\n\t    playerid++;\n\t    playercount++;\n      }\n\n    function addGameEvent(uint _betplaced, uint _rollresult,bool _result,uint _ptoken) public{\n        require(playercount >=1 );\n        outcome[played] = gameRecords(msg.sender,_betplaced,_rollresult,_result,_ptoken,now);\n        played++;\n    }\n\n    function tokenfetch() public {\n      tokenSale.buyTokens(100);\n    }\n\n  }\n",
  "sourcePath": "/var/www/html/Blockchain/Blockchain_Game/contracts/Dice.sol",
  "compiler": {
    "name": "solc",
    "version": "0.5.0+commit.1d4f565a.Emscripten.clang"
  },
  "schemaVersion": "3.0.1",
  "updatedAt": "2019-01-19T11:55:41.152Z",
  "devdoc": {
    "methods": {}
  },
  "userdoc": {
    "methods": {}
  }
}